{
  "contractName": "PickStar",
  "abi": [
    {
      "inputs": [],
      "payable": false,
      "stateMutability": "nonpayable",
      "type": "constructor"
    },
    {
      "constant": true,
      "inputs": [],
      "name": "owner",
      "outputs": [
        {
          "internalType": "address payable",
          "name": "",
          "type": "address"
        }
      ],
      "payable": false,
      "stateMutability": "view",
      "type": "function"
    },
    {
      "constant": true,
      "inputs": [
        {
          "internalType": "address",
          "name": "",
          "type": "address"
        }
      ],
      "name": "payment",
      "outputs": [
        {
          "internalType": "uint256",
          "name": "",
          "type": "uint256"
        }
      ],
      "payable": false,
      "stateMutability": "view",
      "type": "function"
    },
    {
      "constant": true,
      "inputs": [
        {
          "internalType": "uint256",
          "name": "",
          "type": "uint256"
        }
      ],
      "name": "stars",
      "outputs": [
        {
          "internalType": "address",
          "name": "",
          "type": "address"
        }
      ],
      "payable": false,
      "stateMutability": "view",
      "type": "function"
    },
    {
      "constant": false,
      "inputs": [
        {
          "internalType": "uint256",
          "name": "starId",
          "type": "uint256"
        },
        {
          "internalType": "uint256",
          "name": "_amount",
          "type": "uint256"
        }
      ],
      "name": "buyStar",
      "outputs": [
        {
          "internalType": "uint256",
          "name": "",
          "type": "uint256"
        }
      ],
      "payable": true,
      "stateMutability": "payable",
      "type": "function"
    },
    {
      "constant": true,
      "inputs": [],
      "name": "getStars",
      "outputs": [
        {
          "internalType": "address[27]",
          "name": "",
          "type": "address[27]"
        }
      ],
      "payable": false,
      "stateMutability": "view",
      "type": "function"
    }
  ],
  "bytecode": "0x608060405234801561001057600080fd5b50336000806101000a81548173ffffffffffffffffffffffffffffffffffffffff021916908373ffffffffffffffffffffffffffffffffffffffff160217905550610446806100606000396000f3fe60806040526004361061004a5760003560e01c80633b92f3df1461004f578063685c6342146100b45780638da5cb5b1461012f578063b3a2184914610186578063f62eded9146101d9575b600080fd5b34801561005b57600080fd5b5061009e6004803603602081101561007257600080fd5b81019080803573ffffffffffffffffffffffffffffffffffffffff169060200190929190505050610225565b6040518082815260200191505060405180910390f35b3480156100c057600080fd5b506100ed600480360360208110156100d757600080fd5b810190808035906020019092919050505061023d565b604051808273ffffffffffffffffffffffffffffffffffffffff1673ffffffffffffffffffffffffffffffffffffffff16815260200191505060405180910390f35b34801561013b57600080fd5b50610144610270565b604051808273ffffffffffffffffffffffffffffffffffffffff1673ffffffffffffffffffffffffffffffffffffffff16815260200191505060405180910390f35b34801561019257600080fd5b5061019b610295565b6040518082601b60200280838360005b838110156101c65780820151818401526020810190506101ab565b5050505090500191505060405180910390f35b61020f600480360360408110156101ef57600080fd5b810190808035906020019092919080359060200190929190505050610316565b6040518082815260200191505060405180910390f35b601c6020528060005260406000206000915090505481565b600181601b811061024a57fe5b016000915054906101000a900473ffffffffffffffffffffffffffffffffffffffff1681565b6000809054906101000a900473ffffffffffffffffffffffffffffffffffffffff1681565b61029d6103ee565b6001601b806020026040519081016040528092919082601b801561030c576020028201915b8160009054906101000a900473ffffffffffffffffffffffffffffffffffffffff1673ffffffffffffffffffffffffffffffffffffffff16815260200190600101908083116102c2575b5050505050905090565b600081341480156103275750600034115b61033057600080fd5b600083101580156103425750601a8311155b61034b57600080fd5b33600184601b811061035957fe5b0160006101000a81548173ffffffffffffffffffffffffffffffffffffffff021916908373ffffffffffffffffffffffffffffffffffffffff16021790555034601c60003373ffffffffffffffffffffffffffffffffffffffff1673ffffffffffffffffffffffffffffffffffffffff1681526020019081526020016000206000828254019250508190555082905092915050565b604051806103600160405280601b9060208202803883398082019150509050509056fea265627a7a7231582098b544bf4ca6c54ffc6dc81cd32ebacabf0b4e407cda912b41e0c23119eac45364736f6c63430005100032",
  "source": "pragma solidity ^0.5.0;\r\n\r\ncontract PickStar {\r\n  address payable public owner;\r\n  address[27] public stars;\r\n  mapping(address => uint256) public payment;\r\n\r\n  constructor() public {\r\n    owner = msg.sender;\r\n  }\r\n\r\n  // buying a star\r\n  function buyStar(uint starId, uint256 _amount) public payable returns (uint) {\r\n    require(msg.value == _amount && msg.value > 0);\r\n    require(starId >= 0 && starId <= 26);\r\n\r\n    stars[starId] = msg.sender;\r\n\r\n    payment[msg.sender] += msg.value;\r\n    //owner.transfer(msg.value);\r\n\r\n    return starId;\r\n  }\r\n\r\n  function getStars() public view returns (address[27] memory) {\r\n    return stars;\r\n  }\r\n}\r\n",
  "sourcePath": "C:\\Users\\ASUS\\Downloads\\CPE Year 3\\CPE494\\mini-project\\contracts\\PickStar.sol",
  "compiler": {
    "name": "solc",
    "version": "0.5.16+commit.9c3226ce.Emscripten.clang"
  },
  "schemaVersion": "3.4.7",
  "updatedAt": "2022-05-05T17:44:46.145Z",
  "networkType": "ethereum",
  "devdoc": {
    "methods": {}
  },
  "userdoc": {
    "methods": {}
  }
}